:100000000C942A000C943F000C943F000C943F0089
:100010000C943F000C943F000C943F000C943F0064
:100020000C943F000C943F000C943F000C943F0054
:100030000C943F000C943F000C943F000C943F0044
:100040000C943F000C943F000C943F000C943F0034
:100050000C943F0011241FBECFE5D8E0DEBFCDBF1A
:1000600010E0A0E6B0E0ECE6F4E002C005900D92EE
:10007000AC37B107D9F70E9409020C9434020C94F2
:1000800000008AB38E7F8ABB8AB38D7F8ABB8AB316
:100090008B7F8ABB8AB3877F8ABB8BB381608BBB24
:1000A0008BB382608BBB8BB384608BBB8BB388605C
:1000B0008BBB8AB380618ABB8AB380628ABB8AB3F6
:1000C00080648ABB8AB380688ABB8BB380618BBB38
:1000D0008BB380628BBB8BB380648BBB8BB380682C
:1000E0008BBB0895EF92FF920F931F93CF93DF93F3
:1000F000CDB7DEB768970FB6F894DEBF0FBECDBFA1
:1001000084E0898385E08A8386E08B8387E08C8323
:100110001D8281E08E8382E08F8383E0888780E187
:10012000E0E6F0E0DE01199601900D928A95E1F784
:1001300040E050E06AC07BB381E090E07C01098040
:1001400002C0EE0CFF1C0A94E2F78C010A8002C088
:10015000000F111F0A94E2F7DC010B8002C0AA0F06
:10016000BB1F0A94E2F7FC010C8002C0EE0FFF1FD8
:100170000A94E2F76E2D602B6A2B6E2B672B6BBBFC
:100180006BB3E1E0F0E0EC0FFD1FE40FF51F008022
:1001900002C0880F991F0A94E2F7809586238BBBD3
:1001A00089B3E5E0F0E0EC0FFD1FE20FF31F608183
:1001B000E62F90E002C0959587956A95E2F780FD5D
:1001C00019C089B390E00E2E02C0959587950A94C8
:1001D000E2F780FFF6CF220F331F220F331F81E09B
:1001E00090E08C0F9D1F280F391FF901E40FF51FB8
:1001F00080850FC02F5F3F4F02C020E030E02430E9
:1002000031050CF498CF4F5F5F4F44305105ACF38C
:100210008EE468960FB6F894DEBF0FBECDBFDF91B7
:10022000CF911F910F91FF90EF90089582B384605A
:1002300082BB87E893E10197F1F700C0000082B329
:100240008B7F82BB0895CF93C82F83EC99E00197F1
:10025000F1F700C0000082B3816082BB82B38D7F62
:1002600082BB85B38F709C2F907F892B85BB0E94AA
:10027000160182B3816082BB82B38D7F82BB25B3BE
:1002800030E1C39FC0011124922F9F70892B85BB41
:100290000E941601CF910895CF93C82F83EC99E067
:1002A0000197F1F700C0000082B38E7F82BB82B35A
:1002B0008D7F82BB85B38F709C2F907F892B85BBF0
:1002C0000E94160182B38E7F82BB82B38D7F82BB78
:1002D00025B330E1C39FC0011124922F9F70892B59
:1002E00085BB0E941601CF9108958130910549F494
:1002F000862F972F409778F480E8860F0E944C0154
:100300000895029741F4862F972F409720F480ECB0
:10031000860F0E944C0108950F931F93CF93DF9394
:100320008C01C0E0D0E01EC02196C131D10539F466
:1003300060E070E082E090E00E9475010EC0C13282
:10034000D1055CF081E00E944C0160E070E081E04A
:1003500090E00E947501C0E0D0E0F80181918F012A
:100360000E942301F80180818111DECFDF91CF91BE
:100370001F910F91089581E00E944C01089587E834
:1003800093E10197F1F700C0000084B3806F84BB54
:1003900081B3846081BB81B3816081BB81B38260A2
:1003A00081BB82B3887F82BB80E30E944C0183ECD7
:1003B00099E00197F1F700C0000080E30E944C0132
:1003C00092E49A95F1F700C080E30E944C0182E02C
:1003D0000E944C0188E20E944C0188E00E944C017E
:1003E00088E00E944C010E94BB0186E00E944C0103
:1003F0008FE00E944C0108950E94BB0180E790E0CD
:100400000E948C0160E070E082E090E00E94750143
:1004100008950E94BF010E94410060E070E081E009
:1004200090E00E94750180E790E00E948C0160E0FE
:1004300070E082E090E00E947501D0E00E947200BE
:10044000C82F8F3319F08E34C9F304C00E94FC0109
:10045000D0E0F4CFDF5FD03118F00E94FC01D0E093
:0C0460008C2F0E942301EACFF894FFCFFC
:10046C003738392F3435362A3132332D3F303D2B46
:0C047C0050524553532041204B4559007D
:00000001FF
