:100000000C942A000C9447000C9447000C94470071
:100010000C9447000C9447000C9447000C94470044
:100020000C9447000C9447000C9447000C94470034
:100030000C9447000C9447000C9447000C94470024
:100040000C948F020C9447000C9447000C944700CA
:100050000C94470011241FBECFE5D8E0DEBFCDBF12
:1000600010E0A0E6B0E0E8EEF5E002C005900D92E9
:10007000AC36B107D9F720E0ACE6B0E001C01D9284
:10008000A337B207E1F70E94A2010C94F2020C948C
:10009000000082B3846082BB87E893E10197F1F7A7
:1000A00000C0000082B38B7F82BB0895CF93C82F1E
:1000B00083EC99E00197F1F700C0000082B3816002
:1000C00082BB82B38D7F82BB85B38F709C2F907F64
:1000D000892B85BB0E94490082B3816082BB82B3B9
:1000E0008D7F82BB25B330E1C39FC0011124922FC5
:1000F0009F70892B85BB0E944900CF910895CF93B3
:10010000C82F83EC99E00197F1F700C0000082B39B
:100110008E7F82BB82B38D7F82BB85B38F709C2F15
:10012000907F892B85BB0E94490082B38E7F82BB62
:1001300082B38D7F82BB25B330E1C39FC001112400
:10014000922F9F70892B85BB0E944900CF91089503
:100150008130910549F4862F972F409778F480E8F5
:10016000860F0E947F000895029741F4862F972FF3
:10017000409720F480EC860F0E947F0008950F9333
:100180001F93CF93DF938C01C0E0D0E01EC0219677
:10019000C131D10539F460E070E082E090E00E9466
:1001A000A8000EC0C132D1055CF081E00E947F0042
:1001B00060E070E081E090E00E94A800C0E0D0E044
:1001C000F80181918F010E945600F8018081811110
:1001D000DECFDF91CF911F910F91089581E00E94B2
:1001E0007F00089587E893E10197F1F700C00000D0
:1001F00084B3806F84BB81B3846081BB81B3816031
:1002000081BB81B3826081BB82B3887F82BB80E384
:100210000E947F0083EC99E00197F1F700C0000095
:1002200080E30E947F0092E49A95F1F700C080E39A
:100230000E947F0082E00E947F0088E20E947F008F
:1002400088E00E947F0088E00E947F000E94EE000C
:1002500086E00E947F008FE00E947F000895EF9269
:10026000FF920F931F93CF93DF93CDB7DEB72B97FA
:100270000FB6F894DEBF0FBECDBF8C019C01E12C00
:10028000F12C0EC0ADECBCEC0E94D8029C0136955E
:10029000279536952795369527958FEFE81AF80A12
:1002A0002115310579F7E0E0F0E031C09801ADECBF
:1002B000BCEC0E94D802AC015695479556954795DF
:1002C00056954795CA01880F991F440F551F440F33
:1002D000551F440F551F480F591FC801841B950B0C
:1002E000AC010E94D8028C011695079516950795CA
:1002F00016950795D701AE1BBF0B119781E090E0D3
:100300008C0F9D1FA80FB91F405D4C933196EE15C1
:10031000FF0560F281E090E08C0F9D1FE80FF91F50
:100320001082CE0101960E94BF002B960FB6F89462
:10033000DEBF0FBECDBFDF91CF911F910F91FF9018
:10034000EF900895CF93DF93CDB7DEB72B970FB61D
:10035000F894DEBF0FBECDBF1D8286E088871F8266
:1003600080E48E8319861B861A86CE0105960E942C
:1003700014020E94F20040E0BE016F5F7F4F81E0F7
:100380000E94490229813A814B815C81A4E6B0E058
:100390000E94E7022FEF33E040E050E00E94B602F7
:1003A00029833A834B835C8380E690E00E94BF0000
:1003B00089819A810E942F0185E20E94560060E0A7
:1003C00070E082E090E00E94A80029813A814B8190
:1003D0005C8168EE73E080E090E00E94B60260EA23
:1003E00070E080E090E00E94B60249015A01C12C01
:1003F000D12C760108C08FEF0E9456002FEFC21A51
:10040000D20AE20AF20AC814D904EA04FB0498F3F7
:100410008FE39DE023E0815090402040E1F700C051
:1004200000000E94EE00A7CFCF93DF93EC0187E09E
:10043000FE01ACE6B0E001900D928A95E1F796B12D
:100440008881892B86B997B18981892B87B997B122
:100450008A81892B87B996B18B81892B86B996B110
:100460008C81892B86B98C81883021F48FB7806884
:100470008FBF03C08FB78F778FBF86B1806886B973
:100480008881803219F486B1806486B9DF91CF917A
:100490000895CF93DF9397B1907E97B997B1982B3A
:1004A00097B95AB321E030E0E90102C0CC0FDD1F5B
:1004B0008A95E2F7CE01809585238ABB80916C00F6
:1004C000811103C086B1806486B9411102C0349B9A
:1004D000FECF80916E00811108C0E4B1AE2FB0E074
:1004E00085B1E0E0F82FF3700FC0803269F4E4B119
:1004F000E295E695E695E370AE2FB0E0E5B1F0E069
:10050000EE0FFF1FEE0FFF1FEA2BFB2BDB01ED931E
:10051000FC9386B18F7E86B9DF91CF9108951F92AB
:100520000F920FB60F9211242F933F934F935F9327
:100530006F937F938F939F93AF93BF93EF93FF93AB
:10054000E0917100F09172000995FF91EF91BF91D8
:10055000AF919F918F917F916F915F914F913F915B
:100560002F910F900FBE0F901F901895A1E21A2E99
:10057000AA1BBB1BFD010DC0AA1FBB1FEE1FFF1F47
:10058000A217B307E407F50720F0A21BB30BE40B97
:10059000F50B661F771F881F991F1A9469F76095DE
:1005A0007095809590959B01AC01BD01CF01089598
:1005B000A29FB001B39FC001A39F700D811D1124A4
:1005C000911DB29F700D811D1124911D08950E94EF
:1005D000D802A59F900DB49F900DA49F800D911DF2
:0805E00011240895F894FFCFE7
:0C05E80050455243203A20202020000003
:00000001FF
