S0290000556E6974375F6C6573736F6E315F73656374696F6E5F61737369676E6D656E74342E73726563E0
S11300000C942A000C943F000C943F000C943F0085
S11300100C943F000C943F000C943F000C943F0060
S11300200C943F000C943F000C943F000C943F0050
S11300300C943F000C943F000C943F000C943F0040
S11300400C943F000C943F000C943F000C943F0030
S11300500C943F0011241FBECFE5D8E0DEBFCDBF16
S113006010E0A0E6B0E0E2E0F1E002C005900D92FD
S1130070A437B107D9F70E9441000C947F000C9477
S113008000008FEF84BB8AB381608ABB8AB382602D
S11300908ABB40E050E02FC02BB321602BBBFA0198
S11300A0EE0FFF1FE05AFF4F208125BBEFE5FAEE6C
S11300B03197F1F700C000002BB32E7F2BBB2BB37D
S11300C022602BBBFC01EE0FFF1FE05AFF4F208183
S11300D025BBEFE5FAEE3197F1F700C000002BB332
S11300E02D7F2BBB019602C080E090E08A30910501
S11300F09CF24F5F5F4F4A305105B4F3CACFF89476
S1050100FFCF2B
S11301023F0006005B004F0066006D007D000700A3
S1070112FF006F0077
S9030000FC
