:100000000C942A000C9434000C9434000C943400AA
:100010000C9434000C9434000C9434000C94340090
:100020000C9434000C9434000C9434000C94340080
:100030000C9434000C9434000C9434000C94340070
:100040000C9434000C9434000C9434000C94340060
:100050000C94340011241FBECFE5D8E0DEBFCDBF25
:100060000E9436000C9470000C9400000E944A001C
:100070008FEF8ABBC0E08C2F0E946C00CBBB2FE9B6
:1000800086E891E0215080409040E1F700C00000F8
:10009000CF5FF1CF8DB180648DB98DB180628DB9A4
:1000A0008DB180618DB987B3806287BB87B38F7B49
:1000B00087BB87B3806887BB87B3806187BB8DB1FF
:1000C000877F8DB98DB18B7F8DB98DB18D7F8DB9C6
:1000D0008DB18E7F8DB908958FB9779BFECF08952E
:0400E000F894FFCFC2
:00000001FF
