S00E000054696D6572732E73726563A2
S11300000C942A000C943C000C943C000C943C008E
S11300100C943C000C943C000C943C000C943C006C
S11300200C943C000C943C000C94E0000C94B9003B
S11300300C943C000C943C000C943C000C943C004C
S11300400C943C000C943C000C943C000C943C003C
S11300500C943C0011241FBECFE5D8E0DEBFCDBF19
S113006020E0A0E6B0E001C01D92AB36B207E1F794
S11300700E9463000C9407010C94000080916000BE
S113008090916100A0916200B09163000196A11D5E
S1130090B11D8093600090936100A0936200B093BF
S11300A0630080319742A105B10561F492B381E008
S11300B0892782BB10926000109261001092620046
S11300C0109263000895CF93DF9300D000D01F9265
S11300D0CDB7DEB781B3816081BB84E60E94B700EF
S11300E088E0898382E08A838B838EE390E09D831A
S11300F08C83CE0101960E947E00FFCFCF93DF93C5
S1130100EC0185E0FE01A6E6B0E001900D928A952F
S1130110E1F793B78881892B83BF8881883711F0F1
S1130120883619F487B3886087BB93B78981892B94
S113013083BF89818650823018F487B38E7F87BB52
S113014099B78A81892B89BF8A81882321F08FB747
S113015080688FBF03C08FB78F778FBF8B819C81DF
S11301609093650080936400DF91CF9108958CBFD4
S113017008951F920F920FB60F9211242F933F935D
S11301804F935F936F937F938F939F93AF93BF939B
S1130190EF93FF93E0916400F09165000995FF915E
S11301A0EF91BF91AF919F918F917F916F915F91EB
S11301B04F913F912F910F900FBE0F901F90189564
S11301C01F920F920FB60F9211242F933F934F93C8
S11301D05F936F937F938F939F93AF93BF93EF93AB
S11301E0FF93E0916400F09165000995FF91EF9110
S11301F0BF91AF919F918F917F916F915F914F913B
S11302003F912F910F900FBE0F901F901895F89467
S1050210FFCF1A
S9030000FC
