S0290000556E6974375F6C6573736F6E315F73656374696F6E5F61737369676E6D656E74312E73726563E3
S11300000C942A000C9434000C9434000C943400A6
S11300100C9434000C9434000C9434000C9434008C
S11300200C9434000C9434000C9434000C9434007C
S11300300C9434000C9434000C9434000C9434006C
S11300400C9434000C9434000C9434000C9434005C
S11300500C94340011241FBECFE5D8E0DEBFCDBF21
S11300600E9436000C9471000C9400008FEF8ABB40
S113007020E030E016C04BB381E090E0022E02C0D5
S1130080880F991F0A94E2F7842B8BBB4FE78AE110
S113009096E0415080409040E1F700C000002F5F9F
S11300A03F4F283031053CF327E030E017C04BB315
S11300B081E090E0022E02C0880F991F0A94E2F7B3
S11300C0809584238BBB4FE78AE196E041508040C2
S11300D09040E1F700C000002150310933233CF780
S10900E0C7CFF894FFCF26
S9030000FC
