S01A0000556E6974385F4C6573736F6E325F554152542E7372656392
S11300000C942A000C9447000C9447000C9447006D
S11300100C9447000C9447000C9447000C94470040
S11300200C9447000C9447000C9447000C94470030
S11300300C9447000C9447000C9447000C94470020
S11300400C9447000C9447000C9447000C94470010
S11300500C94470011241FBECFE5D8E0DEBFCDBF0E
S113006010E0A0E6B0E0E8E3F3E002C005900D92F2
S1130070A237B107D9F720E0A2E7B0E001C01D9292
S1130080A638B207E1F70E942F010C949A010C9450
S1130090000082B3806182BB87E893E10197F1F7A6
S11300A000C0000082B38F7E82BB0895CF93C82F17
S11300B083EC99E00197F1F700C0000082B38460FB
S11300C082BB82B3877F82BB85B38F709C2F907F66
S11300D0892B85BB0E94490082B3846082BB82B3B2
S11300E0877F82BB25B330E1C39FC0011124922FC7
S11300F09F70892B85BB0E944900CF910895CF93AF
S1130100C82F83EC99E00197F1F700C0000082B397
S11301108B7F82BB82B3877F82BB85B38F709C2F1A
S1130120907F892B85BB0E94490082B38B7F82BB61
S113013082B3877F82BB25B330E1C39FC001112402
S1130140922F9F70892B85BB0E944900CF910895FF
S11301508130910549F4862F972F409778F480E8F1
S1130160860F0E947F000895029741F4862F972FEF
S1130170409720F480EC860F0E947F0008950F932F
S11301801F93CF93DF938C01C0E0D0E01EC0219673
S1130190C131D10539F460E070E082E090E00E9462
S11301A0A8000EC0C132D1055CF081E00E947F003E
S11301B060E070E081E090E00E94A800C0E0D0E040
S11301C0F80181918F010E945600F801808181110C
S11301D0DECFDF91CF911F910F91089581E00E94AE
S11301E07F00089587E893E10197F1F700C00000CC
S11301F084B3806F84BB81B3806181BB81B384602D
S113020081BB81B3886081BB82B3837E82BB80E380
S11302100E947F0083EC99E00197F1F700C0000091
S113022080E30E947F0092E49A95F1F700C080E396
S11302300E947F0082E00E947F0088E20E947F008B
S113024088E00E947F0088E00E947F000E94EE0008
S113025086E00E947F008FE00E947F0008950E9444
S1130260F2000E944C0164E070E081E090E00E94A2
S1130270A80080E690E00E94BF0060E070E082E0A9
S113028090E00E94A8008AE690E00E9475010E9416
S113029082010E94BF00FBCF8AB188608AB98AB10B
S11302A080618AB980B5806880BD80B58F7B80BD50
S11302B083E389B980B5816080BD80B5826080BDEB
S11302C08AB18B7F8AB980B58F7E80BD80B58F7DE2
S11302D080BD80B5877F80BD08955D9BFECF8CB9BE
S11302E008955F9BFECF8CB10895CF93DF93EC010B
S11302F003C00E946D01219688818111FACFDF919C
S1130300CF910895CF93DF930E947101C0E0D0E0B4
S113031007C0FE01EE58FF4F80830E9471012196B1
S11303208332B9F7CE58DF4F188282E790E0DF912D
S10B0330CF910895F894FFCF6A
S1130338554152542054455354002048454C4C4F81
S10503480000AF
S9030000FC
