:100000000C942A000C9434000C9434000C943400AA
:100010000C9434000C9434000C9434000C94340090
:100020000C9434000C9434000C9434000C94340080
:100030000C9434000C9434000C9434000C94340070
:100040000C9434000C9434000C9434000C94340060
:100050000C94340011241FBECFE5D8E0DEBFCDBF25
:100060000E9445000C9496000C940000CF93C62F7C
:1000700098B39F7E98BB0E9492008C2F0E949200A2
:1000800088B3806188BBCF9108950E9470006FEFA4
:1000900089E00E94360067E08BE00E9436006FE046
:1000A0008AE00E94360061E08CE00E94360000E0A9
:1000B00010E0C1E0D0E010C0602F8C2F0E9436000D
:1000C0002FE986E891E0215080409040E1F700C0A0
:1000D000000021960F5F1F4FC930D1056CF3E9CFA7
:1000E0008DB180648DB98DB18F7D8DB98DB18061F9
:1000F0008DB987B3806287BB87B38F7B87BB87B39C
:10010000806887BB87B3806187BB8DB1877F8DB9DE
:100110008DB18B7F8DB98DB18D7F8DB98DB18E7F76
:100120008DB908958FB9779BFECF0895F894FFCFCE
:00000001FF
