S01F0000556E6974385F4C6573736F6E345F5350495F536C6176652E7372656381
S11300000C942A000C9434000C9434000C943400A6
S11300100C9434000C9434000C9434000C9434008C
S11300200C9434000C9434000C9434000C9434007C
S11300300C9434000C9434000C9434000C9434006C
S11300400C9434000C9434000C9434000C9434005C
S11300500C94340011241FBECFE5D8E0DEBFCDBF21
S11300600E9436000C946D000C9400000E9447001E
S11300708FEF8ABB0E9469008BBB2FE986E891E071
S1130080215080409040E1F700C00000F3CF8DB1D3
S113009080648DB98DB180628DB98DB18F7E8DB93B
S11300A087B38F7D87BB87B3806487BB87B38F7724
S11300B087BB87B38F7E87BB8DB1877F8DB98DB1A9
S11300C08B7F8DB98DB18D7F8DB98DB18E7F8DB9BB
S11100D00895779BFECF8FB10895F894FFCF6B
S9030000FC
