:100000000C942A000C945C000C9478000C949400DE
:100010000C9434000C9434000C9434000C94340090
:100020000C9434000C9434000C9434000C94340080
:100030000C9434000C9434000C9434000C94340070
:100040000C9434000C9434000C9434000C94340060
:100050000C94340011241FBECFE5D8E0DEBFCDBF25
:100060000E9440000C94B0000C94000087B38B7F7A
:1000700087BB81B3837F81BB81B3806E81BB0895D1
:100080000E94360012BA8BB7806E8BBF8FB7806824
:100090008FBF85B78C6085BF85B7816085BF84B70A
:1000A0008F7B84BF82B38F7D82BB82B38F7B82BB09
:1000B00082B38F7782BBF6CF1F920F920FB60F924B
:1000C00011242F938F939F9382B3806282BB2FEF73
:1000D00089E698E1215080409040E1F700C000009F
:1000E0009F918F912F910F900FBE0F901F90189599
:1000F0001F920F920FB60F9211242F938F939F93FD
:1001000082B3806482BB2FEF89E698E12150804062
:100110009040E1F700C000009F918F912F910F90C8
:100120000FBE0F901F9018951F920F920FB60F924F
:1001300011242F938F939F9382B3806882BB2FEFFC
:1001400089E698E1215080409040E1F700C000002E
:100150009F918F912F910F900FBE0F901F90189528
:04016000F894FFCF41
:00000001FF
