:100000000C942A000C943F000C943F000C943F0089
:100010000C943F000C943F000C943F000C943F0064
:100020000C943F000C943F000C943F000C943F0054
:100030000C943F000C943F000C943F000C943F0044
:100040000C943F000C943F000C943F000C943F0034
:100050000C943F0011241FBECFE5D8E0DEBFCDBF1A
:1000600010E0A0E6B0E0EAEBF0E002C005900D92EF
:10007000A437B107D9F70E9441000C945B000C949F
:1000800000008FEF84BB80E090E011C0FC01EE0F18
:10009000FF1FE05AFF4F208125BB2FEF34E34CE0D8
:1000A000215030404040E1F700C0000001968A3006
:0A00B000910564F3E8CFF894FFCF48
:1000BA003F0006005B004F0066006D007D000700F0
:0400CA00FF006F00C4
:00000001FF
